:020000040000fa
:080000000002040000000000f2
:020000040000fa
:040008001a030000d7
:020000040000fa
:04000c001a030000d3
:020000040000fa
:040010001a030000cf
:020000040000fa
:040014001a030000cb
:020000040000fa
:040018001a030000c7
:020000040000fa
:04001c001a030000c3
:020000040000fa
:040020001a030000bf
:020000040000fa
:040024001a030000bb
:020000040000fa
:040028001a030000b7
:020000040000fa
:04002c001a030000b3
:020000040000fa
:040030001a030000af
:020000040000fa
:04003400c8020000fe
:020000040000fa
:040038001a030000a7
:020000040000fa
:04003c001a030000a3
:020000040000fa
:040040001a0300009f
:020000040000fa
:040044001a0300009b
:020000040000fa
:040048001a03000097
:020000040000fa
:04004c001a03000093
:020000040000fa
:040050001a0300008f
:020000040000fa
:040054001a0300008b
:020000040000fa
:040058001a03000087
:020000040000fa
:04005c001a03000083
:020000040000fa
:040060001a0300007f
:020000040000fa
:040064001a0300007b
:020000040000fa
:040068001a03000077
:020000040000fa
:04006c001a03000073
:020000040000fa
:040070001a0300006f
:020000040000fa
:040074001a0300006b
:020000040000fa
:040078001a03000067
:020000040000fa
:04007c001a03000063
:020000040000fa
:040080001a0300005f
:020000040000fa
:040084001a0300005b
:020000040000fa
:040088001a03000057
:020000040000fa
:04008c001a03000053
:020000040000fa
:040090001a0300004f
:020000040000fa
:040094001a0300004b
:020000040000fa
:040098001a03000047
:020000040000fa
:04009c001a03000043
:020000040000fa
:0400a0001a0300003f
:020000040000fa
:0400a4001a0300003b
:020000040000fa
:0400a8001a03000037
:020000040000fa
:0400ac001a03000033
:020000040000fa
:0400b0001a0300002f
:020000040000fa
:0400b4001a0300002b
:020000040000fa
:0400b8001a03000027
:020000040000fa
:0400bc001a03000023
:020000040000fa
:0400c0001a0300001f
:020000040000fa
:0400c4001a0300001b
:020000040000fa
:0400c8001a03000017
:020000040000fa
:0400cc001a03000013
:020000040000fa
:0400d0001a0300000f
:020000040000fa
:0400d4001a0300000b
:020000040000fa
:0400d8001a03000007
:020000040000fa
:0400dc001a03000003
:020000040000fa
:0400e0001a030000ff
:020000040000fa
:0400e4001a030000fb
:020000040000fa
:0400e8001a030000f7
:020000040000fa
:0400ec001a030000f3
:020000040000fa
:0400f0001a030000ef
:020000040000fa
:0400f4001a030000eb
:020000040000fa
:0400f8001a030000e7
:020000040000fa
:0400fc001a030000e3
:020000040000fa
:040100001a030000de
:020000040000fa
:040104001a030000da
:020000040000fa
:040108001a030000d6
:020000040000fa
:04010c001a030000d2
:020000040000fa
:040110001a030000ce
:020000040000fa
:040114001a030000ca
:020000040000fa
:040118001a030000c6
:020000040000fa
:04011c001a030000c2
:020000040000fa
:040120001a030000be
:020000040000fa
:040124001a030000ba
:020000040000fa
:040128001a030000b6
:020000040000fa
:04012c001a030000b2
:020000040000fa
:040130001a030000ae
:020000040000fa
:040134001a030000aa
:020000040000fa
:040138001a030000a6
:020000040000fa
:04013c001a030000a2
:020000040000fa
:040140001a0300009e
:020000040000fa
:040144001a0300009a
:020000040000fa
:040148001a03000096
:020000040000fa
:04014c001a03000092
:020000040000fa
:040150001a0300008e
:020000040000fa
:040154001a0300008a
:020000040000fa
:040158001a03000086
:020000040000fa
:04015c001a03000082
:020000040000fa
:040160001a0300007e
:020000040000fa
:040164001a0300007a
:020000040000fa
:040168001a03000076
:020000040000fa
:040208001a030000d5
:020000040000fa
:04020c001a030000d1
:020000040000fa
:040210001a030000cd
:020000040000fa
:040214001a030000c9
:020000040000fa
:040218001a030000c5
:020000040000fa
:04021c001a030000c1
:020000040000fa
:040220001a030000bd
:020000040000fa
:040224001a030000b9
:020000040000fa
:040228001a030000b5
:020000040000fa
:04022c001a030000b1
:020000040000fa
:040230001a030000ad
:020000040000fa
:04023400c8020000fc
:020000040000fa
:040238001a030000a5
:020000040000fa
:04023c001a030000a1
:020000040000fa
:040240001a0300009d
:020000040000fa
:040244001a03000099
:020000040000fa
:040248001a03000095
:020000040000fa
:04024c001a03000091
:020000040000fa
:040250001a0300008d
:020000040000fa
:040254001a03000089
:020000040000fa
:040258001a03000085
:020000040000fa
:04025c001a03000081
:020000040000fa
:040260001a0300007d
:020000040000fa
:040264001a03000079
:020000040000fa
:040268001a03000075
:020000040000fa
:04026c001a03000071
:020000040000fa
:040270001a0300006d
:020000040000fa
:040274001a03000069
:020000040000fa
:040278001a03000065
:020000040000fa
:04027c001a03000061
:020000040000fa
:040280001a0300005d
:020000040000fa
:040284001a03000059
:020000040000fa
:040288001a03000055
:020000040000fa
:04028c001a03000051
:020000040000fa
:040290001a0300004d
:020000040000fa
:040294001a03000049
:020000040000fa
:040298001a03000045
:020000040000fa
:04029c001a03000041
:020000040000fa
:0402a0001a0300003d
:020000040000fa
:0402a4001a03000039
:020000040000fa
:0402a8001a03000035
:020000040000fa
:0402ac001a03000031
:020000040000fa
:0402b0001a0300002d
:020000040000fa
:0402b4001a03000029
:020000040000fa
:0402b8001a03000025
:020000040000fa
:0402bc001a03000021
:020000040000fa
:0402c0001a0300001d
:020000040000fa
:0402c4001a03000019
:020000040000fa
:0402c8001a03000015
:020000040000fa
:0402cc001a03000011
:020000040000fa
:0402d0001a0300000d
:020000040000fa
:0402d4001a03000009
:020000040000fa
:0402d8001a03000005
:020000040000fa
:0402dc001a03000001
:020000040000fa
:0402e0001a030000fd
:020000040000fa
:0402e4001a030000f9
:020000040000fa
:0402e8001a030000f5
:020000040000fa
:0402ec001a030000f1
:020000040000fa
:0402f0001a030000ed
:020000040000fa
:0402f4001a030000e9
:020000040000fa
:0402f8001a030000e5
:020000040000fa
:0402fc001a030000e1
:020000040000fa
:040300001a030000dc
:020000040000fa
:040304001a030000d8
:020000040000fa
:040308001a030000d4
:020000040000fa
:04030c001a030000d0
:020000040000fa
:040310001a030000cc
:020000040000fa
:040314001a030000c8
:020000040000fa
:040318001a030000c4
:020000040000fa
:04031c001a030000c0
:020000040000fa
:040320001a030000bc
:020000040000fa
:040324001a030000b8
:020000040000fa
:040328001a030000b4
:020000040000fa
:04032c001a030000b0
:020000040000fa
:040330001a030000ac
:020000040000fa
:040334001a030000a8
:020000040000fa
:040338001a030000a4
:020000040000fa
:04033c001a030000a0
:020000040000fa
:040340001a0300009c
:020000040000fa
:040344001a03000098
:020000040000fa
:040348001a03000094
:020000040000fa
:04034c001a03000090
:020000040000fa
:040350001a0300008c
:020000040000fa
:040354001a03000088
:020000040000fa
:040358001a03000084
:020000040000fa
:04035c001a03000080
:020000040000fa
:040360001a0300007c
:020000040000fa
:040364001a03000078
:020000040000fa
:040368001a03000074
:020000040000fa
:100400002f8220000eff20000e0188000000000057
:10041000000020000000e000020032000001200087
:100420002002880014000700840007000000e0009c
:1004300003003a00e06b21000100200002003700b9
:100440000000200001002000810f70000100320038
:1004500014000700000020000000e000020032004d
:100460000000020000000000221602000000000050
:100470000040da000000fe004440a9000000200017
:100480000000e0000300320000002000a00188000e
:100490004440a800000006008a1f78008b1f7800e7
:1004a0000000060091018800800478000000eb0045
:1004b0001a003700e284440032a0b4009905ba0063
:1004c000e284440032a0b4009906ba00e2844400f9
:1004d00032a0b4000006eb00476fde00fd07b2005b
:1004e000636ce10003003a00ebff07000000eb0043
:1004f0000a003700606ce10004003a00005deb0088
:100500008b05e900fdff3e00040037006168e10053
:10051000010032000086eb000b00070019c7ba008b
:100520001905ba000e04e00003003a000a00e000da
:10053000e0ff3a0000000600fe07b2009e018800be
:100540008a047800f5ff3700395dba008b05e900b1
:100550000c003200295dba008b05e900080032006a
:100560000c00e00003003a00e284440032a0b40032
:10057000f5ff370019ddba008b05e900faff3a00f4
:100580008904e800e184440032a0b40000000600c1
:100590003600f800809fbe00829fbe00849fbe0090
:1005a000869fbe000000fa0000408000e10f50006e
:1005b00007003a006000b8000105070005e1a90046
:1005c0000021ef009460a9000028ef00110037001f
:1005d00000408000e20f500007003a006000b800c1
:1005e0006105070005e1a9000021ef009460a90062
:1005f0000028ef000700370000408000e30f5000a4
:1006000004003a0005e1a9000021ef009460a90070
:100610000028ef008460a9000080fa004f03be00ac
:100620004f02be004f01be004f00be003600f90071
:10063000004006000040da000000fe000000050057
:100640001400200092033700f4ff2f0090033700be
:100650000001be00240007000470a70003f0a10001
:100660006509b100160032000d0035006828e10070
:1006700006003500f0ff2f00f1ff27000300e00027
:1006800013003b00010028000000050000004000ae
:10069000818048008502e900fcff3a00080037002d
:1006a000f88f420002003c008000eb0000000500d3
:1006b0008100d1000080d3008502e800fcff3a00f1
:1006c0000300e00002003b0060001000e080180022
:1006d000000006004f89de008201780087033700a2
:1006e0006011b80095033700c70ade00f107b200b9
:1006f000f50fb20008003200e1cf420002003200e4
:100700000170a00024000500810f7000010032007c
:100710000408050044000500810f700002003a0043
:10072000140005008502e9000000400081c0480077
:10073000fcff3b000170a0002400050007f8270023
:10074000078361000638e10004003a00f707200043
:10075000878361008703710001003a0003f0a20063
:10076000889fbe008a9fbe008c9fbe00470ade00a5
:100770000480a100c71ade000580a1000700280040
:100780000785600087856100f70f20000720e100e2
:100790009e0032000728e1009c003200010678002c
:1007a0000400e000b4003200f707200087806000fa
:1007b0000170a0000500e000c0003200f707200033
:1007c000878161000370a000050652000f003a0007
:1007d0000b50e1000b0032000308e10002003a0078
:1007e0000200e1007e0032000204500083845800c1
:1007f000040031000001fd008101fd008402fd00c4
:100800008a05fd006044b800210037000520e100a2
:1008100005003d000001fd008101fd008402fd0096
:100820008a05fd00050652007a60e10005003500ea
:100830000170a1004722dd00848070008a80700072
:10084000630037006044b800ef02660007ff2f0026
:10085000070666000500e00006003400f083120081
:100860008714dd000511de00071bdd0006017100a5
:100870008519de007060e10005003500090478008c
:1008800082047800030178008001eb0070065600b6
:100890000b50e10003003a00020040008380480052
:1008a0000400370060041400e0841c0002005800bb
:1008b000838058000188a300060032008100d10027
:1008c0000080d3008984d3000884d3000402e800a8
:1008d000270037000178a30025003a000100e0005e
:1008e000030032008186cf00698656000a00370077
:1008f0008c0020000000e00004003a0009007800ad
:10090000880478000004eb00700252008086cf005b
:100910000d0646000c06e9007060e1000600350097
:100920008000780009007800880478000004eb005b
:1009300070065600700252000c00e0000c003400fb
:100940008c08dd00f00316000703de0086807000cf
:100950000c00dd00074bde00060070008c4cdd0053
:100960000743de00868474000c44dd000c02520054
:100970006120e100200035006101600007002800cf
:1009800087816400f7ff27008783640007037400f2
:100990000300e0000600320082037300040032000e
:1009a0000000e800e08048000188a3000e003a0043
:1009b000f70f20000720e1004a003d000170a10070
:1009c0004722dd00810072008a8070000000be00b6
:1009d0004f06be004f05be004f04be0000000600db
:1009e0006000b800faff37008100d1000080d3001a
:1009f0000402e800eeff370004017800890174006a
:100a0000a10107008a807000f1ff3700f70107009d
:100a1000070278000001fd008101fd00f3010700dd
:100a200087027800850372000778a3000400320073
:100a30000001fd008101fd0006020700e4ff370010
:100a4000850362000768a300080032000b50e10034
:100a500003003200f0ff2f00f1ff2700dcff37001a
:100a60000001fd008101fd00d9ff37000468a300eb
:100a7000d7ff3200faff3700f8ff270088836000b5
:100a80000b003a000000e00009003a008303640014
:100a900082837300020032000200be00ccff3700e8
:100aa0000b50e100ceff3a000200be00c8ff370045
:100ab00014002000810064003eff3700f8ff27008b
:100ac0008883610004003a000200e00002003a005e
:100ad0008c007800beff3700150020008301640001
:100ae00039ff370001f82700000020008100750061
:100af000b7ff3700889fbe008a9fbe008c9fbe0054
:100b00001b0020000202be000586680006002800c7
:100b1000060666004709de00f20fb20082003200ce
:100b20000243e80080003200c729de00f30fb20064
:100b30007d0032000343e8007b003200f107b20081
:100b40000170a000f507b2000570a000c708dd0025
:100b50004903de00868070004700dd00c72add0003
:100b60004923de00868272004722dd000305510022
:100b7000040350008583580003003100000040004a
:100b8000818048000a05e9008c1f78008a9fbe001a
:100b900004005000858058000402420085824a000b
:100ba00000004000818048000005eb000004be000a
:100bb0006033b8000406be000d48e1005600310065
:100bc000110009004dccd8000c01b8000d02b8008e
:100bd0008481410060824a008283530003045c00e8
:100be00084845c0060055d000a00e00025003a0096
:100bf000800578000d40e100490031008800780050
:100c000007007800110009004d88d8000c01b800d9
:100c10000d02b8008481410060824a006003110027
:100c200083835b0004045c00e0845c000900e00056
:100c300021003a004f01be000300e0002b0032000b
:100c4000e3016000070673008c817100010032002f
:100c5000640070004200de004e5edd000c0070009b
:100c6000c258de0001e0a00083010700cf01780038
:100c7000818071004f06be004f05be004f04be00cc
:100c8000000006008c8343000d044c00e0844c00ff
:100c900060054d000000e9000a00e000d4ff3200ca
:100ca0008c8343000d044c00e0844c0060054d0033
:100cb0000000e900ceff37000c0343008d834b009a
:100cc00060044c00e0844c000000e9000900e000f2
:100cd000d8ff32000c0343008d834b0060044c00ae
:100ce000e0844c000000e900d2ff37004200de0043
:100cf0004e5edd000c007000c258de0001e0a00076
:100d0000cf0178000300e000daff3200600010003d
:100d1000e0801800d7ff3700f0ff2f00aaff370050
:100d2000f0ff2f00b9ff37000404be002f010700b9
:100d3000870678000004fd008104fd002b010700f8
:100d4000078366000678a300030032000960a7004d
:100d50000800be002c0037000d78a300020032000e
:100d60000800be00280037000778a30026003a00dc
:100d700001f0a10009f0a1000668a3000300320001
:100d8000f1ff2700f0ff2f00baff37000d68a30026
:100d9000030032000800be008c807000b5ff3700f1
:100da0000768a30007003a000648a30003003200ca
:100db000f1ff2700f0ff2f00aeff37000d48a30022
:100dc000030032006000b8008c807000a9ff37007b
:100dd0000748a3000400320001f8270000002000ab
:100de0008c807000a3ff3700760107000004fd002f
:100df0008104fd0002057800720107000802be00b0
:100e00008a01780059ff37000160a000120220001b
:100e10000241880097ff37000100e0001200320015
:100e20000500e00010003200889fbe008a9fbe00cf
:100e30008c9fbe000006eb0001f8a3000300320007
:100e400060001000e08018000cf0a00005f8a3007e
:100e50000300320060021200e0821a000cf0a200cf
:100e60008005eb0041ff37006000b800020005007c
:100e7000038368000700280007036300470ade00b9
:100e80000480a100c71ade000580a100f70f200032
:100e90000720e100420032000728e1004000320054
:100ea000889fbe008a9fbe008c1f7800f107b200a9
:100eb000f307b2000400e000640032000170a000fb
:100ec0000500e000680032000370a00085054200c4
:100ed000eb07b1000204b8000302b80084844400a8
:100ee00060854a00020ab800848444000a854a00ea
:100ef000030ab80004054500040033000804d000cc
:100f00008984d2000a85d2008b05e9006158e1008e
:100f10003d00350002102000090161000308200097
:100f200089816100f70720008783640008867300c9
:100f3000c84cde00c853dd00878474004855de00cd
:100f40000300e00006003200820376000400320055
:100f50008904e80060054d000a88a3000c003a00ef
:100f6000f70f20000758e10044003d000a70a1007f
:100f7000c75ddd000a8575008a00730009007800ee
:100f80004f0678004f05be004f04be00000006006b
:100f90000a05d1008984d3008b05e800f0ff3700f3
:100fa000881f780006047800900007000702780088
:100fb0000001fd008101fd008c0007008702780020
:100fc000850372000778a300050032000001fd00d0
:100fd0008101fd009f0007004f047800000006001b
:100fe000850372000748a30003003200f0ff2f00c2
:100ff000f1ff2700f8ff37000000200001f827006c
:1010000088807000f4ff3700880178004848dd00d0
:10101000808171004848de00c850dd00010070008a
:10102000c850de00060478000b01780016000700a7
:1010300088807000d2ff37000500e0000500320014
:10104000170020003a0007009dff37008103700061
:10105000f9ff3a00860078004f0678004f05be0081
:101060004f04be000000050083037100f9ff320049
:10107000270020002e00070094ff370001f827000a
:1010800086807000f4ff37000100e0002600320087
:10109000610111007810e10023003c006022b800db
:1010a0007010e10004003500800278000100780033
:1010b0008000eb00700151000200e00009003400e4
:1010c00070031100062add00822ade008603dd009f
:1010d000878272000200de00860bdd0007007000d0
:1010e0008208de0084817100f4ff27000482620020
:1010f0008481710004002800848262006102600023
:1011000005f0a6000000060004827100070032000e
:101110000000e800e0804800000006000002be0079
:101120006000b800efff37006000b8000000060064
:10113000889fbe000004eb006138e10016003a0011
:101140000100e00008003a00c800de004800dd00b1
:10115000880020000100e00003003a00c800de0023
:101160004800dd00680444008184cf00e984540015
:10117000060034008908dd00f08314008703de00d8
:10118000878070000900dd0009044400610214003a
:101190004f04be00000006000300e00008003a0013
:1011a000c811de004811dd00880020000300e000c7
:1011b00003003a00c811de004811dd006804440055
:1011c0008384cf00e9845400060034008919dd00cf
:1011d000f08314008713de00878171000911dd00a0
:1011e00009044400e1021400e9ff37002700200051
:1011f00001f0a70017002000470bde00f60fb20039
:10120000040032000643e8000a0032004702b3003f
:101210000000060001037800f607b2000603700024
:1012200002003a000703b300000006008702b30083
:101230000000060001037800f607b2000603700004
:10124000020032000770a000000006000760a00046
:10125000000006000478a300040032000578a30013
:10126000030032000168a30001003a000200be0042
:101270000160a0000000060081017000270032001c
:101280008002eb0001f8a3000300320060001000b0
:10129000e080180015002000f40720000202420040
:1012a00020003400f70320008703600006042000bc
:1012b0000003630002082000000161004700de0017
:1012c000c909dd0000807100c708de000600e000eb
:1012d0000800320087037100060032001000b000e1
:1012e0000180b0000188a30002003200c108de00c6
:1012f0000402e800f107b200f30f20000320e10030
:1013000003003d004722dd00810072002900370004
:1013100001f827000000eb00260037006000b8004d
:1013200000000600680212007f20e1000200340085
:101330006000b8001f0037006011b8007020e100a5
:101340000400350080017800010078008000eb0087
:10135000700252000400e00009003400f0031200a3
:101360000719dd008419de000703dd0086817100a6
:101370000400de00070bdd00060070008408de00bc
:10138000f7ff2700838363008703710006002800ae
:1013900003036300070032000700e00003003a0087
:1013a0006101600002817300020032001000b00091
:1013b0000180b0000500a6000000060001f0a000ba
:1013c000000006004f0ade004709de00f107b20008
:1013d000f20fb2000b003200f207b1000170a00062
:1013e000c708dd00c901de00838070004700dd0012
:1013f0000400a6000000060060001000e080180055
:1014000000000600810f700001003a000000060095
:101410008182cf000500e00010003e008082cf00f6
:10142000ee8242007028e1000400390007003e000f
:10143000800078000000eb000e003700708312007f
:101440008600de000500dd000a00370070835200d0
:101450008600dd000000eb0006003700e28252004b
:101460008508dd00708312000603de0086807000b0
:101470000500dd007507b0000501ea000400a600c4
:101480000000060060001000e08018000000060068
:10149000889fbe008a9fbe00841f78007c000700e2
:1014a0004f00780011003300f0ff2f00838f6c0095
:1014b00006003b00040565000a00a700080037008d
:1014c00009f0a6001000200008003700820f540029
:1014d000838f5c00030039001000200001003e00f3
:1014e0000000200009f0a7000000ea004f05be0040
:1014f0004f04be000000e00000000600881f7800d6
:10150000030478000300e00007003d0060001000c5
:10151000e080180060011900e081190002003b0022
:1015200001f02d00030037000400070008f0a700b9
:1015300001f0a0004f04780000000600889fbe0064
:101540008a9fbe0000827000040271000482710054
:10155000260032000004be000200be006011b80088
:101560006b092000950220000182cf000a0039009b
:101570000541b1000082cf00070039000541b100ec
:101580000982cf00040039000541b1000882cf0074
:10159000010039000541b10005425200120032003d
:1015a0000a003b0082817100610164008100d1006a
:1015b0000080d3008984d3000884d3008b05e80021
:1015c0000442e800f7ff3a0007003700080444002f
:1015d00089844c0000004800818048008b05e900a8
:1015e0000442e900f9ff3a00030007004f05be007e
:1015f0004f04be00000006008100200061805500fd
:101600000b003d000b00200061fe2f000100e100f7
:101610001d00340082817100610164008904d100e1
:101620000884d3000000e800faff3a0071002000af
:1016300061006400030070000200600009003200d5
:1016400061044400e0844c000988a50005003200d4
:101650008b05e8006808e10002003a008904d10027
:101660000884d300f20f20000258e10005003d007d
:10167000c75ddd00f907b2008980750008007800b9
:10168000000006000bf827008b0078000000050022
:101690000004be0014fc07000003be000405be00e9
:1016a0000200be0010fc0700844f75000000060019
:1016b0000400fa00889fbe008a9fbe008c9fbe0077
:1016c0000004be004708de00f00fb2005109200000
:1016d000810f500041003c000806be00e00f54009e
:1016e000e08f5c0003003d000805be000bf0a20087
:1016f000010037000805be00d1072000810f50000f
:101700000a003c000200200003b024000a00be00d2
:1017100013fc070080bf9f0091bf9f006011b800bd
:101720000800be00d2fd07002b0037000200200099
:1017300003b024000a00be0009fc070002002000dc
:1017400003b02400fdfb07000a01be00fbfb0700fd
:101750000004be000200200003f02300bafb0700d3
:101760000000e000070034000a01be000800be00cf
:10177000fbfb07000200200003f82300effb07003b
:101780000f0037000200200003f02b000800be000d
:10179000abfb07000000e00006003c000a01be00b1
:1017a0000800be00eefb07000200200003f8230043
:1017b000020037000a01be000800be00e8fb070077
:1017c000e00f5600e08f5e0003003d000004be0005
:1017d00009f0a200010037000004be000800be00ae
:1017e0004f06be004f05be004f04be000080fa0049
:0417f00000000600ef
:020000040000fa
:1017f4000000fa00213a8000f08f2f000080600082
:10180400203a88000080fa00000006000000fa0078
:10181400e024ef00e224ef00c022ef00c822ef0032
:10182400c422ef00cc22ef000080fa000000060082
:101834000000fa0021058000f0ff2800008060000d
:1018440000d0a000200588008460a9009460a9004d
:101854000080fa00000006000000fa000421ef00f6
:101864002108800000032000010070002008880087
:101874000421a9000221ef000021ef0005e1a900e5
:101884000080fa00000006000000fa009a21ef0030
:101894009c21ef00d10c800000c0210001007000e9
:1018a400d00c8800d10c800080ff2f0000806000e5
:1018b4006000b300d00c88009ce1a900e00c80001b
:1018c400f001b300e00c880000a62000f00c8800b2
:1018d400a021ef00a421ef00a621ef00210d80003c
:1018e40000c0210001007000200d8800210d80003f
:1018f40080ff2f00008060006000b300200d88008e
:10190400a6e1a900300d8000f001b300300d88007d
:1019140000a62000400d8800aa21ef00cc42a900b7
:10192400c442a900c402a900c422a900caff070036
:10193400bfff07000080fa00000006000400fa0060
:10194400008fbe0062ee2200532624001e00be005b
:1019540067fc07000080fa00000006000200fa009d
:10196400000f78001e0078000000e00003003a0039
:10197400cc42a900c442a80002003700cc42a8000f
:10198400c442a9000080fa00000006000200fa0028
:10199400000f78001e0078000000e00003003a0009
:1019a400c402a900c422a80002003700c402a8008f
:1019b400c422a9000080fa00000006001000fa000a
:1019c400881f78006c0147000089be006c00470046
:1019d40002002000a34724001000be0023fd0700de
:1019e4006c0147000089be006c004700d2cc2c007b
:1019f400132324001000be003dfc070064014700cf
:101a04000089be0018c0b300640047006011b8002c
:101a14001000be000bfb07000000e00001003c00ca
:101a24000044eb000804e000030032000000eb0077
:101a3400caff07000200370010002000c7ff07009c
:101a44006400470032332300b31724001000be00a3
:101a540027fc0700020020006352240003fd070056
:101a640032d22200d3f8230000fd070001f0a100c8
:101a7400f6fa0700000f780000a620009e00780008
:101a8400808f50000200340000a62000000f780070
:101a94001e007800500d88006c004700d2cc2c004a
:101aa400132324001000be0011fc07006801470046
:101ab4000089be0018c0b300680047006011b80078
:101ac4001000be00dffa07000000e00001003c0047
:101ad4000044eb000804e000030032000000eb00c7
:101ae400aaff07000200370010002000a7ff07002c
:101af4006800470032332300b31724001000be00ef
:101b0400fbfb07000200200063522400d7fc0700ff
:101b1400f2c72b00f3f82300d4fc070001f0a10066
:101b2400cafa07000e81e800000978000e80e80078
:101b34009000780000a62000808f5000030034003d
:101b440001a620000e80e800010878000e80e8005d
:101b540010007800000d88004f0478000080fa001f
:101b6400000006001800fa00881f7800740147007e
:101b74000089be00740047001000be006fff07001c
:101b8400640147000089be006000b8006801470096
:101b94000089be00680047000200200003302400d2
:101ba4001000be00edfa0700640147001201be00f8
:101bb400aefc0700d2cc2c0013232400ccfb07007e
:101bc4006c0147000089be0018c0b3006c004700d8
:101bd4006011b8001000be009afa07000000e0008f
:101be40001003c000044eb000804e0000300320064
:101bf4000000eb0059ff070002003700100020002e
:101c040056ff07006c00470032332300b31724004b
:101c14001000be00b6fb070002002000635224003f
:101c240092fc070032d22200d3f823008ffc070075
:101c340001f0a10085fa0700000f780000a620003b
:101c44009e007800808f50000200340000a620001f
:101c5400000f78001e007800500d880068004700cf
:101c640002002000033024001000be00b2fa070076
:101c7400640147001201be007cfc0700d2cc2c009a
:101c8400132324009afb0700700147000089be005b
:101c940018c0b300700047006011b8001000be0007
:101ca40068fa07000000e00001003c000044eb007b
:101cb4000804e000030032000000eb0033ff0700db
:101cc400020037001000200030ff070070004700ba
:101cd40032332300b31724001000be0084fb070036
:101ce400020020006352240060fc0700f2c72b00ae
:101cf400f3f823005dfc070001f0a10053fa07008c
:101d04000e81e800000978000e80e8009000780059
:101d140000a62000808f50000300340001a620009c
:101d24000e80e800010878000e80e80010007800ba
:101d3400000d88004f0478000080fa0000000600bf
:101d44001c00fa00881f780074024700008abe0055
:101d5400780047000288be00740047001000be00ef
:101d6400f6fe0700640147000089be0068004700d2
:101d7400f800470031187800211078006800470007
:101d840002002000033024001000be0073fa070094
:101d9400640147001201be0034fc0700d2cc2c00c1
:101da4001323240052fb07006c0147000089be0086
:101db40018c0b3006c0047006011b8001000be00ea
:101dc40020fa07000000e00001003c000044eb00a2
:101dd4000804e000030032000000eb00dffe07000f
:101de4000200370010002000dcfe07006c004700f2
:101df40032332300b31724001000be003cfb07005d
:101e0400020020006352240018fc070032d2220092
:101e1400d3f8230015fc070001f0a1000bfa07001a
:101e2400000f780000a620009e007800808f5000ec
:101e34000200340000a62000000f78001e00780085
:101e4400500d880068004700020020000330240081
:101e54001000be0038fa0700640147001201be00fa
:101e640002fc0700d2cc2c001323240020fb070023
:101e7400700147000089be0018c0b300700047001d
:101e84006011b8001000be00eef907000000e00089
:101e940001003c000044eb000804e00003003200b1
:101ea4000000eb00b9fe070002003700100020001c
:101eb400b6fe07007000470032332300b317240036
:101ec4001000be000afb0700020020006352240039
:101ed400e6fb0700f2c72b00f3f82300e3fb07003f
:101ee40001f0a100d9f907000e81e800000978008b
:101ef4000e80e8009000780000a62000808f50003b
:101f04000300340001a620000e80e80001087800d8
:101f14000e80e80010007800000d88004f0478005f
:101f24000080fa00000006000c00fa00881f780008
:101f340064024700008abe00680047000288be00b1
:101f440018c0b300640047006011b8001000be0060
:101f5400bcf907000000e00001003c000044eb0075
:101f64000804e000030032000000eb007bfe0700e1
:101f7400020037001000200078fe070064004700cc
:101f840002002000633124001000be00d8fa0700cc
:101f94000200200063522400b4fb070032d2220066
:101fa400d3f82300b1fb070001f0a100a7f9070053
:101fb400000f780000a620009e007800808f50005b
:101fc4000200340000a62000000f78001e007800f4
:101fd400500d880018c0b300680047006011b800b5
:101fe4001000be0097f907000000e00001003c006b
:101ff4000044eb000804e000030032000000eb00a2
:1020040062fe070002003700100020005ffe070098
:102014006800470002002000633124001000be0065
:10202400b3fa070002002000635224008ffb07006c
:1020340032d22200d3f823008cfb070001f0a10068
:1020440082f907000e81e800000978000e80e8009c
:102054009000780000a62000808f50000300340018
:1020640001a620000e80e800010878000e80e80038
:1020740010007800000d88004f0478000080fa00fa
:10208400000006000e00fa00e4024700808abe0049
:10209400680047000288be006c00470004487800ce
:1020a4006400470002002000a34724001000be0083
:1020b4006efb0700640147000089be00680047000a
:1020c40002002000a34724001000be0067fb0700a5
:1020d400680147000089be00e4004700680047002b
:1020e4001101be001000be0081fa070001f0a1003a
:1020f400008fbe00d27b2300638823001e00be0035
:102104007bfa070069fd070050f90700000078001a
:1021140010088800100020000040880005e1a80095
:102124000021ef009460a8008460a90064004700c7
:102134001000be0021fe07006c004700104078002c
:102144000004e00005003200010037000000000038
:10215400004080000000e000fcff3a000080fa002c
:10216400000006000e00fa00e4024700808abe0068
:10217400680047000288be006c00470004487800ed
:10218400e4004700680047001101be001000be00d3
:1021940057fa070001f0a100008fbe00d27b230094
:1021a400638823001e00be0051fa07003ffd0700ac
:1021b40026f907000000780010088800200020009d
:1021c4000040880005e1a8000021ef009460a80009
:1021d4008460a900640047001000be0061fe07008f
:1021e4006c004700104078000004e0000500320055
:1021f4000100370000000000004080000000e00003
:10220400fcff3a000080fa00000006000800fa0013
:10221400640147000089be0064004700301f780055
:1022240020177800d27b2300638823001e00be00a1
:102234002ffa07001dfd070004f9070000007800cd
:1022440010088800300020000040880005e1a80044
:102254000021ef009460a8008460a9000100370009
:1022640000000000004080000000e000fcff3a0095
:102274000080fa00000006000000fa00c9c2a800ad
:10228400e3c4a800c9e2a800e3e4a800c9a2a80026
:10229400e3a4a800c062a800e064a80041e3a90088
:1022a4004143a800011a8000f0cf2f000080600095
:1022b400001a8800011a8000f0f02f00808060006e
:1022c4000007200001007000001a88004043a800a5
:1022d400111a8000f0ff230000806000101a8800ab
:1022e40043a3a9004363a8004343a800111a800034
:1022f40030f82f0000806000c000b300101a88007e
:102304004203a90045e3a900211a8000f00f2e0022
:1023140000806000201a8800f0c3b30044e3b700d3
:102324005123a8005143a8005163a80051c3a80039
:1023340041e3a8000080fa00000006000000fa0053
:10234400889fbe0020408000cf80de00e0f80700b8
:10235400d2cc2c00c3e42300c4fa07000004be005e
:10236400a01880008000eb00dcf80700d2cc2c0021
:10237400c3f42300bdfa07000001be000800be003c
:10238400f6f80700b1f80700000078002040880044
:1023940020408000501eb1004f04be000080fa00af
:1023a400000006000000fa00889fbe003040800054
:1023b400cf80de00c6f80700d2cc2c00c3e4230093
:1023c400aafa07000004be00b01880008000eb00e9
:1023d400c2f80700d2cc2c00c3f42300a3fa0700f0
:1023e4000001be000800be00dcf8070097f80700f3
:1023f4000000780030408800304080004f04be0068
:102404000080fa00000006000000fa00889fbe0069
:1024140040408000cf80de00adf80700d2cc2c0015
:10242400c3e4230091fa07000004be009018800062
:102434008000eb00a9f80700d2cc2c00c3f42300e1
:102444008afa07000001be000800be00c3f80700b6
:102454007ef807000000780040408800404080007b
:102464004f04be000080fa00000006000000fa00dd
:10247400e118800070bb2000808f500002003600fd
:1024840010c0b300010037000040eb000080fa00e8
:10249400000006000000fa000040eb000080fa0093
:1024a400000006000600fa00889fbe00a3ff070094
:1024b400000f7800bbff0700800078000e80e80062
:1024c40001087800d0ff070080007800640047000e
:1024d400010878001e007800cf80de007cf8070039
:1024e400020020000304240060fa07000004be0078
:1024f4000e80e80010007800cf80de0074f807003a
:102504000001be0095f807000001be000800be00ef
:1025140092f807000004be00640047001000780031
:10252400cf80de006af807000001be000800be008c
:102534008af807000004be000e80e800100078004e
:102544001e004000e40047009100780001004000b4
:10255400cf80de005ef807000001be000800be0068
:1025640063f90700504088006140880050408000b3
:102574006140800002002000030024006ef8070080
:1025840050408800614088004f04be000080fa007b
:10259400000006000c00fa00889fbe005040800036
:1025a4006140800001f0a10018c0b300d2cc2c001f
:1025b400c3dc230021f807000000e000010035001f
:1025c4000044eb000804e000020032006000b800a0
:1025d4004c0037005240800063408000028fbe00f0
:1025e400744080008540800050408000614080003d
:1025f4000001be000400be0058f807006401470053
:102604000089be00544080006540800090408000f6
:10261400a14080000001be000400be0046f807008f
:10262400680147000089be0050408000614080007e
:1026340001f0a10018c0b3000200200003f0230041
:10264400fef707000000e000010035000044eb0045
:102654000804e0001600320002002000432b24008e
:102664001e00be0001fa07000004be00640047001b
:102674006011b8001000be00fcf907000001be00a4
:102684000800be0035f807000004be0068004700db
:1026940002002000831c24001000be00f3f9070090
:1026a4000001be000800be002cf80700150037002a
:1026b40002002000233824001e00be00ebf90700ae
:1026c4000004be00640047006011b8001000be00a2
:1026d400e6f907000001be000800be001ff807006d
:1026e4000004be0068004700020020008324240088
:1026f4001000be00ddf907000001be000800be00a6
:1027040016f807004f04be000080fa00000006001f
:102714000800fa00889fbe0062ff07009dff0700c3
:10272400640147000089be00504080006140800081
:1027340090408800a140880060092000000f7800c4
:10274400610920000e80e8000108780018c0b30079
:10275400640047006011b8001000be00b9f707001c
:102764000000e00001003c000044eb000804e0002d
:102774000f003200640047001000be00b3f70700ea
:10278400000078001e0f4000640047001000be00e7
:10279400aef70700000078008e80e8009100780012
:1027a400808050000e80e800010878000e00370099
:1027b400640047001000be00a4f707000000780082
:1027c4001e0f4000640047001000be009ff7070082
:1027d400000078008e80e80091007800808050002e
:1027e4000e80e800010878000e80e80010007800f0
:1027f400cf80de00b6f707000004be001e0078009c
:10280400cf80de00b2f707000801be00c6fd070056
:102814004f04be000080fa00000006000000fa0029
:1028240012ff07000004e00004003200b040800002
:102834000000e800b04088001828ef000bff0700f4
:102844000004a2000004e00004003200c040800044
:102854000000e800c04088001628ef00b040800067
:10286400e40f50000200340010c0b3001de8b700ac
:10287400c0408000e40f5000010034001c68ef00e9
:102884001dc8bf000004e0002d0032001cc8bf00ba
:102894000004a2000004e00008003200b040800000
:1028a400e40f500005003400d04080000000e80030
:1028b400d040880010c0b3001ce8b700c1408000bd
:1028c40010032000808f50001d0034001d68ef00ad
:1028d4001c68ef00d0408000e30f50000900320074
:1028e400e40f50000c003200e20f50000f003a00d9
:1028f4001628ef001828ef001a28ef0040002000e7
:10290400100037001628ef001828ef001a28ef00ef
:10291400500020000b0037001628ef001828ef00a5
:102924001a28ef0060002000060037001628ef0088
:102934001828ef001a28ef003000200001003700ab
:10294400300020000080fa00000006000000fa00b9
:10295400300020000080fa00000006000000fa00a9
:102964000080fa00000006000000fa00f040800039
:10297400f60f500002003a008000200001003700ea
:10298400300020000080fa00000006000200fa0077
:10299400a2ff0700000f78001e0078000080fa00f4
:1029a400000006000000fa0014c0b300020020007a
:1029b400232d2c000000200041332400e9fd0700f2
:1029c40014c0b300a299290093e12b000000200059
:1029d40001f02300abfd07000000200001002400eb
:1029e4000afe070014c0b300a299290093e1230052
:1029f4000000200001f02300a2fd070014c0b30072
:102a040002002000232d2400000020004133240074
:102a1400d4fd07000080fa00000006000200fa005e
:102a24009cfe0700004f78001e4078000004a200be
:102a34000004e0000700320014c0b30002002000cc
:102a4400232d24000000200041332400c5fd07008d
:102a54000600370014c0b30002002000232d2c0010
:102a64000000200041332400befd070014c0b30061
:102a7400a299290093d92b000000200001f0230023
:102a840080fd070014c0b300a299290093d92b003c
:102a94000000200001f023007afd07001e407800aa
:102aa4000004a2000004e0000700320014c0b300d8
:102ab40002002000232d2c000000200041332400bc
:102ac400a8fd07000600370014c0b3000200200070
:102ad400232d24000000200041332400a1fd070021
:102ae4000080fa00000006000000fa00c902a800f5
:102af400c8e2a8000080fa00000006000000fa0006
:102b04005116800000082000008060000000e000f2
:102b14000200320010c0b300010037000040eb0097
:102b24000080fa00000006000000fa005116800040
:102b340000102000008060000000e000020032006d
:102b440010c0b300010037000040eb000080fa0021
:102b5400000006000000fa00e8ff07000004e0009f
:102b6400040032000000200001f0230093fb070062
:102b740010003700ecff07000004e00007003200fb
:102b840014c0b30002002000c32c2c00000020005d
:102b940061312c0073fd07000600370014c0b30038
:102ba40002002000032d24000000200061312400d5
:102bb4006cfd070014fe070081bb2000810f50004c
:102bc4001c003400ddfd070081bb2000810f500094
:102bd4001800340014c0b300d2cc2c00c3d423009a
:102be4000000200001f0230026fd0700ceff0700af
:102bf4000004e0000700320014c0b300020020000b
:102c0400c32c2c000000200061312c0055fd07006e
:102c14000600370014c0b30002002000032d240076
:102c240000002000413324004efd07003000200046
:102c340001003700600020000080fa000000060058
:102c44000200fa00eafa0700f0fa07000efb070098
:102c540089fd0700a4ff070030002000000f780062
:102c6400000020000100240068fd07006000b80097
:102c740052fb070039ff07001e007800e40f5000e4
:102c840029003200e40f500009003e00e10f50001b
:102c940011003200e10f50000e003900e20f500025
:102ca4000e003200e30f50001b0032002e003700ec
:102cb400e60f500027003200e60f50001d003900d7
:102cc400e70f500026003200e80f500025003200c4
:102cd40025003700270037002600370014c0b30052
:102ce400d2cc2c00c3ec23000000200001f0230010
:102cf400e4fc070014c0b30002002000232d2c00c4
:102d0400000020004133240016fd0700300020009d
:102d1400000f7800170037007dfe07001bff070037
:102d2400000f78001300370030002000000f7800f7
:102d3400100037006000b80020fb070000002000ee
:102d44000100240031fd070030002000000f78004e
:102d5400080037007fff0700000f780005003700e8
:102d6400040037000300370010002000000f780033
:082d7400c0ff3700bfff37006c
:020000040000fa
:102d7c0000080000200000000000000020080000f7
:0c2d8c0002000000000000000000000039
:020000040000fa
:0200000401f009
:04000c00dfff000012
:020000040000fa
:0200000401f009
:04001000fbff0000f2
:00000001FF
